:10C0000068470320718D0100CD0F0300A18D010051
:10C01000A18D0100A18D0100A18D0100A18D010064
:10C020000000000000000000000000005D8B010027
:10C03000A18D010000000000AD8A010049820100CD
:10C04000318D0100318D0100318D0100318D0100F4
:10C05000318D0100318D0100318D0100318D0100E4
:10C06000318D0100318D0100318D0100318D0100D4
:10C07000318D0100318D0100318D0100318D0100C4
:10C08000318D0100318D0100318D0100318D0100B4
:10C09000318D0100318D0100318D0100318D0100A4
:10C0A000318D0100318D0100318D0100318D010094
:10C0B00081D20100ED3A0300318D0100318D010084
:10C0C000318D0100318D0100318D0100318D010074
:10C0D000318D0100318D0100318D0100318D010064
:10C0E000318D0100318D01000B3B0300318D0100CA
:10C0F000318D0100318D0100318D0100318D010044
:10C10000318D0100318D0100318D0100318D010033
:10C11000318D0100318D0100318D0100318D010023
:10C12000318D0100318D0100318D0100318D010013
:10C13000318D0100318D0100318D0100318D010003
:10C14000318D010000000000000000000000000030
:10C1500000000000000000000000000000000000DF
:10C1600000000000000000000000000000000000CF
:10C1700000000000000000000000000000000000BF
:10C1800000000000000000000000000000000000AF
:10C19000000000000000000000000000000000009F
:10C1A000000000000000000000000000000000008F
:10C1B000000000000000000000000000000000007F
:10C1C000000000000000000000000000000000006F
:10C1D000000000000000000000000000000000005F
:10C1E000000000000000000000000000000000004F
:10C1F000000000000000000000000000000000003F
:10C20000DEE61E284CBBCE8F025B00003C00000027
:10C210004CD802000100000000C0000000C0000077
:10C22000FFFF02910000000000000000000000007D
:0CC2300000000000000000000000000002
:04C23C00FFFFFFFF02
:10C240002DE9F04F2DED028B87B00021139C129E3B
:10C250002161C4E9021121751F46317000F53C7956
:10C2600016460546CDE90267B0F80E8401F0E0FFFE
:10C27000D9E9002352EA03012DD0B61A9FEDC41B61
:10C280009FEDC50B67EB0307B5F80CA406F09CFC0B
:10C2900000F00EFD51EC100B05F0B2FEA0FB0A23DE
:10C2A00001FB0A334FEA121A901B4AEA037A63EB46
:10C2B00007014FEA231B82457BEB0101C0F2448159
:10C2C000B01A67EB03010B4682457BEB030302DAEE
:10C2D000129A6423137000230DF1160BC4E9003386
:10C2E000C4E902332361237522460DF11503CDF80D
:10C2F00000B00121284601F0A1FF9DF81530BDF8DE
:10C3000016A02BB195F85934637495F85734A3747B
:10C310000DF115032246CDF800B00221284601F0A8
:10C320008DFFBDF816209DF81530924528BF924626
:10C330002BB195F85834E37495F85734A3740DF184
:10C3400015032246CDF800B00321284601F076FF00
:10C35000BDF816209DF81530924528BF924613B1BE
:10C3600095F85734A3740DF115032246CDF800B0AB
:10C370000421284601F062FFBDF816309DF8152013
:10C380009A4528BF9A46C24528BFC246002A6DD1A9
:10C3900005F53E78B5F85434B3FBFAF20AFB1232D5
:10C3A000AAEB020A1FFA8AFAB5F81014ADF81610B3
:10C3B000DDE9026753449BB2B3FBF1F201FB123398
:10C3C000C9E900679FED721BA5F85434A5F80CA4C9
:10C3D0009FED710B06F0F8FB00F06AFC51EC100BBE
:10C3E00005F00EFED8E90089A0FB0A2301FB0A3301
:10C3F000B6185F414FF0000AB6EB0800C4E90067C9
:10C4000067EB090185F85BA405F0BCFDDFED648AEC
:10C410009FED648A07EE900AC7EEA87AF4EEC87A18
:10C42000F1EE10FA7BD49FED607AF4EEC77AF1EE6C
:10C4300010FA74DC05F54073D3E90034F01A67EBA9
:10C44000040105F09FFD07EE900AC7EEA87AF4EE0E
:10C45000C87AF1EE10FA46BF662385F85C3485F899
:10C460005CA407B0BDEC028BBDE8F08F0123237400
:10C4700095F856344D4A05EB4303527DB3F820142A
:10C48000A18195F85814E17495F85714A17405EB3F
:10C490008202D2ED897AF5EE407AF1EE10FA0CD1F3
:10C4A00095F85B244AB9B3F81834E38105F53E7872
:10C4B000DDE90223C8E900236CE705F53E7805F5C0
:10C4C000407BD8E90067DBE90023964277EB030164
:10C4D000DDE90201BCBF16461F46801B61EB070168
:10C4E00005F050FD9FED2E0A07EE900A87EE800AB8
:10C4F00002F084F895F85B34E081C3B9DDE90223EA
:10C50000162128469FED2A0A03F08AF995F85B3434
:10C51000002BCDD0DDE90223CBE900233AE76523E8
:10C5200085F85C3407B0BDEC028BBDE8F08FDDE927
:10C53000022316212846B7EE000A03F071F9A3681A
:10C5400043F40013A360E1E79FED111B9FED120B75
:10C55000D9E900ABB5F80C8406F036FB00F0A8FB77
:10C5600051EC100B05F04CFDA0FB08231AEB020662
:10C5700001FB0833129A4BEB03076423C4E90067FD
:10C58000137007B0BDEC028BBDE8F08FAFF30080F5
:10C590000000000000001C400000000000002440DB
:10C5A000286B6E4E0000704200007043E063030091
:10C5B00000000000000000002DE9F04F2DED048B7D
:10C5C0008DB0DDE91A9A0025164604460F4689F813
:10C5D000005000F22A411C2205A89B4628F0E9F9E8
:10C5E000002E00F097803B79013BDAB2012A40F23D
:10C5F000068101959FEDBE8A9FEDBE9ADFEDBE8A52
:10C60000CDF86CA0012516E0BC4A1A41D10715D51A
:10C61000012202FA03F3019A134200F0B480F323DB
:10C6200089F800300135EDB2AE420ED307EBC503F9
:10C6300013F8043C013BDBB2142BE5D90135EDB214
:10C640000A23AE4289F80030F0D299F90030DDF8C3
:10C650006CA0002B61DA9BF80030072B40F287803A
:10C660000023DFF8A4929FEDA26AA449A44EDFF84C
:10C6700094E2DFEDA15A9C4602E0182F3B467BD0A6
:10C6800049FA03F25F1CD0075FFA87F8F5D50CF181
:10C69000010C5FFA8CFC0CF1005001380AEBC00071
:10C6A000012580F804809D4080ED006A00234FF64C
:10C6B000FF780CE0424507D007EE902AF8EEE77AC3
:10C6C00085EEA77A80ED007A0133152BD5D041FA9B
:10C6D00003F2D207F8D556F823201542F4D013F808
:10C6E0000E2090ED007A04EB4202B4EE467AF1EEB1
:10C6F00010FAB2F82824DDD007EE902AF8EEE77A97
:10C70000C5EEA76AB4EEE67AF1EE10FA48BFC0EDC6
:10C71000006AD9E70C2389F8003005A9204601F00A
:10C72000B9FD002868D199F90000002893DB734E09
:10C73000744F002346FA03F25D1CD207E9B20ED50E
:10C74000DB5D0CAA02EB430204EB430332F81E2C20
:10C75000B3F828349342204601D001F0D7FF152DBD
:10C760002B46E7D19BF80030072B3FF679AFF1233A
:10C7700089F800304FF0000C8BF800C00DB0BDEC14
:10C78000048BBDE8F08F05F10052013A07EBC208B7
:10C7900098ED000A019AB5EE400A1A43F1EE10FA3C
:10C7A000019243D1F62389F80030B5EEC00AF1EECC
:10C7B00010FA04DDB4EEC80AF1EE10FA54D4B5EE66
:10C7C000400AF1EE10FA14BF4FF0FF3300239BB282
:10C7D000029399F90030002B7FF424AF494A98F86E
:10C7E000043013440CAA13F8013C02EB4303BDF8D8
:10C7F000082023F81E2C15E789F8000095E7D7EDEF
:10C80000007AF5EE407AF1EE10FA7FF4F2AEBDF860
:10C81000142047F230539A421DD0BDF816209A4298
:10C8200019D00B23AC4689F80030A5E7B4EE480ACE
:10C83000F1EE10FAC3D0F2EE047AB4EEE70AF1EEAC
:10C8400010FA04DCB4EEC90AF1EE10FAADD5F22309
:10C8500089F80030A9E794F95C34002B88D10122D3
:10C860009C4684F85B2487E788EE800A1FF070FA04
:10C870004FF0000ABCEEC00A10EE103A9BB2CDE9B0
:10C880000235204A98F80430134413F8013C53440D
:10C8900003F2A3130AF10E0A34F81350284600F0ED
:10C8A0008BFB11A3D3E9002300F000FC41EC100B3B
:10C8B00000F0FEF951EC100B05F074FA80B22B1A5F
:10C8C000029A9BB205449342ADB203D8954201D37C
:10C8D000039D7EE7BAF1540FD3D1F423039D89F869
:10C8E00000309FE6AFF300807B14AE47E17A843FCF
:10C8F00000FF7F470E74DA3A0000C842EF79120059
:10C9000074630300C86303000F20E0000000000010
:10C910001649416030B40921154D164C0170164975
:10C92000164A8161C5621649164D0464164C0261AF
:10C930004162164A16498563C464164D164C42611D
:10C94000816200221549C56304656FF000454FF010
:10C95000FF34C0E9164501668260C2610263426429
:10C96000C26002624263826430BC704707F0963D49
:10C97000E63F4CC0B15083400000A0401C7CE13D2C
:10C98000CDCC0C3E91ED3CBF5DFEE33E3480D73F05
:10C9900067D5273EFB3A403F363C85BF000040400C
:10C9A0002DE9F04786B004AB05AE0546007800934C
:10C9B00001960DF10F030F4605F03AF89DF90F00AF
:10C9C000F8B9012405F1400A05F12C0905F1180810
:10C9D000A31E032B03D8DFE803F0231D170C2A1D29
:10C9E0003146384603F08EFB052C1FD00134E4B2EB
:10C9F000EEE73846314603F0E7F89DF90F0085ED84
:10CA0000180A06B0BDE8F08752463146384603F0B2
:10CA100079FBEBE74A463146384603F073FBE5E71E
:10CA200042463146384603F06DFBDFE79DF90F00C3
:10CA3000E7E700BF2DE9F8432DED048BBDF8381072
:10CA4000B1F5E16F0646B0EE408A14461D46F0EEA1
:10CA5000608A6AD046D8642965D0B1F5967F4BD1FB
:10CA600004274FF0FF326FF00043D6E9160105F0BE
:10CA7000A7F8002840D1D6E91601DDE90C23121AE7
:10CA800063EB01031046194600F0E2FA29A3D3E94B
:10CA9000002300F035FC8046894600F0C9FD06EB16
:10CAA000870707EE900AD7ED009A97ED057A97ED84
:10CAB0000A9A67EEA99A42464B464046494627EEF7
:10CAC000899A79EE879A00F0F1FA00F0B1FD07EE4D
:10CAD000900A97ED0F7A79EE277A77EE877A89EECA
:10CAE000A79A0BE041F2707399421AD047F2305383
:10CAF000994201D10127B4E79FED0D9A4FF0FF3223
:10CB00006FF000432046294605F05AF808B9C6E9F7
:10CB1000164538EE490A30EE680ABDEC048BBDE8D4
:10CB2000F88302279DE705279BE790ED189AE5E734
:10CB3000000000000000000065CDCD412DE9F0436C
:10CB400085B004AC052504F8095D06461746007853
:10CB500022460D4604F09AFF9DF807200390D2B1BB
:10CB6000012406F1400906F12C08631E042B0DD8A0
:10CB7000DFE803F03E22352C030003AA394628469D
:10CB800096ED180A03F03AF89DF807200134E4B254
:10CB9000A242EAD2039804A9022221F8060D02A8B3
:10CBA00027F007FF9DF808209DF8093003982A70A8
:10CBB0006B7005B0BDE8F0833A4603AB294606F139
:10CBC000180003F011FA9DF80720DFE73A4603AB9F
:10CBD0002946484603F008FA9DF80720D6E73A466A
:10CBE00003AB2946404603F0FFF99DF80720CDE747
:10CBF0003A4603AB2946301D03F0F6F99DF80720AD
:10CC0000C4E700BF2DE9F04186B006AD012405F868
:10CC1000094D0746904600782A460E4604F036FF36
:10CC20009DF80F300590ABB105AD03E00134E4B2DF
:10CC3000A3420ED3012CF9D1D7E916014346009542
:10CC4000324603F04DF801349DF80F30E4B2A342B0
:10CC5000F0D2059806A9022221F8060D04A827F0B3
:10CC6000A8FE9DF810209DF8113005983270737061
:10CC700006B0BDE8F08100BF70B586B004AB05AD6D
:10CC800004460078009301950DF10F030E4604F061
:10CC9000CFFE9DF90F0038B92946304603F004F85D
:10CCA000C4E916019DF90F0006B070BD0000000038
:10CCB00038B555EC104B1EF0DDFF00221A4B51EC3D
:10CCC000100B00F065FC80B10022184B204629466D
:10CCD00000F072FC60B90022154B2046294600F096
:10CCE00075FC88B19FED0E0B38BD45EC104B38BD7F
:10CCF000204629460D4B002200F022F8BDE83840BE
:10CD000041EC100B05F0DCBE20462946074B002203
:10CD100000F014F8BDE8384041EC100B05F050BEAF
:10CD20000000000000000000000030430000E03F71
:10CD30000000E0BF81F0004102E000BF83F000434B
:10CD400030B54FEA41044FEA430594EA050F08BFA6
:10CD500090EA020F1FBF54EA000C55EA020C7FEA6A
:10CD6000645C7FEA655C00F0E2804FEA5454D4EBE7
:10CD70005555B8BF6D420CDD2C4480EA020281EAB1
:10CD8000030382EA000083EA010180EA020281EAE9
:10CD90000303362D88BF30BD11F0004F4FEA01313B
:10CDA0004FF4801C4CEA113102D0404261EB41014A
:10CDB00013F0004F4FEA03334CEA133302D05242D0
:10CDC00063EB430394EA050F00F0A780A4F101048C
:10CDD000D5F1200E0DDB02FA0EFC22FA05F28018C6
:10CDE00041F1000103FA0EF2801843FA05F35941AC
:10CDF0000EE0A5F120050EF1200E012A03FA0EFC2B
:10CE000028BF4CF0020C43FA05F3C01851EBE37154
:10CE100001F0004507D54FF0000EDCF1000C7EEB71
:10CE200000006EEB0101B1F5801F1BD3B1F5001FAF
:10CE30000CD349085FEA30004FEA3C0C04F10104CE
:10CE40004FEA445212F5800F80F09A80BCF1004FF7
:10CE500008BF5FEA500C50F1000041EB045141EA79
:10CE6000050130BD5FEA4C0C404141EB010111F47A
:10CE7000801FA4F10104E9D191F0000F04BF014625
:10CE80000020B1FA81F308BF2033A3F10B03B3F103
:10CE900020020CDA0C3208DD02F1140CC2F10C0293
:10CEA00001FA0CF021FA02F10CE002F11402D8BFF1
:10CEB000C2F1200C01FA02F120FA0CFCDCBF41EABD
:10CEC0000C019040E41AA2BF01EB0451294330BD8C
:10CED0006FEA04041F3C1CDA0C340EDC04F1140469
:10CEE000C4F1200220FA04F001FA02F340EA030040
:10CEF00021FA04F345EA030130BDC4F10C04C4F186
:10CF0000200220FA02F001FA04F340EA0300294665
:10CF100030BD21FA04F0294630BD94F0000F83F4AF
:10CF2000801306BF81F480110134013D4EE77FEA92
:10CF3000645C18BF7FEA655C29D094EA050F08BFDE
:10CF400090EA020F05D054EA000C04BF19461046BF
:10CF500030BD91EA030F1EBF0021002030BD5FEA03
:10CF6000545C05D14000494128BF41F0004130BD2B
:10CF700014F580043CBF01F5801130BD01F000457F
:10CF800045F0FE4141F470014FF0000030BD7FEAF2
:10CF9000645C1ABF194610467FEA655C1CBF0B46ED
:10CFA000024650EA013406BF52EA033591EA030F04
:10CFB00041F4002130BD00BF90F0000F04BF0021FC
:10CFC000704730B54FF4806404F132044FF000052F
:10CFD0004FF0000150E700BF90F0000F04BF0021A8
:10CFE000704730B54FF4806404F1320410F000450E
:10CFF00048BF40424FF000013EE700BF42004FEA09
:10D00000E2014FEA31014FEA02701FBF12F07F4385
:10D0100093F07F4F81F06051704732F07F4208BF3C
:10D02000704793F07F4F04BF41F40021704730B543
:10D030004FF4607401F0004521F000411CE700BF8F
:10D0400050EA010208BF704730B54FF000050AE012
:10D0500050EA010208BF704730B511F0004502D513
:10D06000404261EB41014FF4806404F132045FEA15
:10D07000915C3FF4D8AE4FF003025FEADC0C18BFBE
:10D0800003325FEADC0C18BF033202EBDC02C2F1B0
:10D09000200300FA03FC20FA02F001FA03FE40EA42
:10D0A0000E0021FA02F11444BDE600BF70B54FF046
:10D0B000FF0C4CF4E06C1CEA11541DBF1CEA135524
:10D0C00094EA0C0F95EA0C0F00F0DEF82C4481EA8C
:10D0D000030621EA4C5123EA4C5350EA013518BFAC
:10D0E00052EA033541F4801143F4801338D0A0FB99
:10D0F00002CE4FF00005E1FB02E506F00042E0FB46
:10D1000003E54FF00006E1FB03569CF0000F18BF4B
:10D110004EF0010EA4F1FF04B6F5007F64F54074F3
:10D1200004D25FEA4E0E6D4146EB060642EAC62186
:10D1300041EA55514FEAC52040EA5E504FEACE2EF3
:10D14000B4F1FD0C88BFBCF5E06F1ED8BEF1004FF6
:10D1500008BF5FEA500E50F1000041EB045170BD72
:10D1600006F0004646EA010140EA020081EA0301B6
:10D17000B4EB5C04C2BFD4EB0C0541EA045170BDB2
:10D1800041F480114FF0000E013C00F3AB8014F12C
:10D19000360FDEBF002001F0004170BDC4F1000475
:10D1A000203C35DA0C341BDC04F11404C4F12005F6
:10D1B00000FA05F320FA04F001FA05F240EA020051
:10D1C00001F0004221F0004110EBD37021FA04F687
:10D1D00042EB06015EEA430E08BF20EAD37070BD41
:10D1E000C4F10C04C4F1200500FA04F320FA05F0A0
:10D1F00001FA04F240EA020001F0004110EBD370A2
:10D2000041F100015EEA430E08BF20EAD37070BD11
:10D21000C4F1200500FA05F24EEA020E20FA04F3EA
:10D2200001FA05F243EA020321FA04F001F0004199
:10D2300021FA04F220EA020000EBD3705EEA430E0A
:10D2400008BF20EAD37070BD94F0000F0FD101F039
:10D250000046400041EB010111F4801F08BF013C72
:10D26000F7D041EA060195F0000F18BF704703F0B0
:10D270000046520043EB030313F4801F08BF013D37
:10D28000F7D043EA0603704794EA0C0F0CEA1355F3
:10D2900018BF95EA0C0F0CD050EA410618BF52EAAD
:10D2A0004306D1D181EA030101F000414FF00000B3
:10D2B00070BD50EA410606BF1046194652EA4306C1
:10D2C00019D094EA0C0F02D150EA013613D195EA35
:10D2D0000C0F05D152EA03361CBF104619460AD17D
:10D2E00081EA030101F0004141F0FE4141F4700187
:10D2F0004FF0000070BD41F0FE4141F4780170BD77
:10D3000070B54FF0FF0C4CF4E06C1CEA11541DBFDB
:10D310001CEA135594EA0C0F95EA0C0F00F0A7F8DD
:10D32000A4EB050481EA030E52EA03354FEA01310A
:10D3300000F088804FEA03334FF0805545EA13131D
:10D3400043EA12634FEA022245EA111545EA1065E5
:10D350004FEA00260EF000419D4208BF964244F17C
:10D36000FD0404F5407402D25B084FEA3202B61A9B
:10D3700065EB03055B084FEA32024FF480104FF46F
:10D38000002CB6EB020E75EB030E22BFB61A7546E3
:10D3900040EA0C005B084FEA3202B6EB020E75EB76
:10D3A000030E22BFB61A754640EA5C005B084FEADE
:10D3B0003202B6EB020E75EB030E22BFB61A7546AB
:10D3C00040EA9C005B084FEA3202B6EB020E75EBB6
:10D3D000030E22BFB61A754640EADC0055EA060E77
:10D3E00018D04FEA051545EA16754FEA06164FEABA
:10D3F000C30343EA52734FEAC2025FEA1C1CC0D166
:10D4000011F4801F0BD141EA00014FF000004FF0F2
:10D41000004CB6E711F4801F04BF01430020B4F1B3
:10D42000FD0C88BFBCF5E06F3FF6AFAEB5EB030C6B
:10D4300004BFB6EB020C5FEA500C50F1000041EB68
:10D44000045170BD0EF0004E4EEA113114EB5C0435
:10D45000C2BFD4EB0C0541EA045170BD41F4801108
:10D460004FF0000E013C90E645EA060E8DE60CEA10
:10D47000135594EA0C0F08BF95EA0C0F3FF43BAF2D
:10D4800094EA0C0F0AD150EA01347FF434AF95EAE4
:10D490000C0F7FF425AF104619462CE795EA0C0FC8
:10D4A00006D152EA03353FF4FDAE1046194622E795
:10D4B00050EA410618BF52EA43067FF4C5AE50EA6F
:10D4C00041047FF40DAF52EA43057FF4EBAE12E75F
:10D4D0004FF0FF3C06E000BF4FF0010C02E000BF40
:10D4E0004FF0010C4DF804CD4FEA410C7FEA6C5C23
:10D4F0004FEA430C18BF7FEA6C5C1BD001B050EAC6
:10D50000410C0CBF52EA430C91EA030F02BF90EAB0
:10D51000020F0020704710F1000F91EA030F58BF6F
:10D52000994208BF90422CBFD8176FEAE37040F0D1
:10D53000010070474FEA410C7FEA6C5C02D150EA6F
:10D54000013C07D14FEA430C7FEA6C5CD6D152EA2A
:10D55000033CD3D05DF8040B704700BF84461046EF
:10D5600062468C461946634600E000BF01B5FFF7EE
:10D57000B7FF002848BF10F1000F01BD4DF808EDBE
:10D58000FFF7F4FF0CBF012000205DF808FB00BF8F
:10D590004DF808EDFFF7EAFF34BF012000205DF8E9
:10D5A00008FB00BF4DF808EDFFF7E0FF94BF012036
:10D5B00000205DF808FB00BF4DF808EDFFF7CEFF37
:10D5C00094BF012000205DF808FB00BF4DF808ED76
:10D5D000FFF7C4FF34BF012000205DF808FB00BF47
:10D5E0004FEA410212F5001215D211D56FF478738B
:10D5F000B3EB625212D94FEAC12343F0004343EA2E
:10D60000505311F0004F23FA02F018BF4042704708
:10D610004FF00000704750EA013005D111F0004092
:10D6200008BF6FF0004070474FF00000704700BF28
:10D630004FEA4102B2F1E04324BFB3F5001CDCF134
:10D64000FE5C0DD901F0004C4FEAC0024CEA50706C
:10D65000B2F1004F40EB830008BF20F0010070479B
:10D6600011F0804F21D113F13872BCBF01F000409E
:10D67000704741F480114FEA5252C2F11802C2F1D0
:10D68000200C10FA0CF320FA02F018BF40F0010051
:10D690004FEAC1234FEAD32303FA0CFC40EA0C0003
:10D6A00023FA02F34FEA4303CCE77FEA625307D140
:10D6B00050EA01331EBF4FF0FE4040F44000704777
:10D6C00001F0004040F0FE4040F40000704700BF11
:10D6D0007BB972B90029BEBF00204FF0004106E0BF
:10D6E00008BF00281CBF6FF000414FF0FF3000F072
:10D6F000BBB9ADF1080C6DE904CE002909DB002BA4
:10D700001ADB00F04DF8DDF804E0DDE9022304B097
:10D710007047404261EB4101002B1BDB00F040F8F9
:10D72000DDF804E0DDE9022304B0404261EB410191
:10D73000524263EB43037047524263EB430300F0F2
:10D740002FF8DDF804E0DDE9022304B0404261EB8C
:10D7500041017047524263EB430300F021F8DDF8CA
:10D7600004E0DDE9022304B0524263EB4303704757
:10D7700053B94AB9002908BF00281CBF4FF0FF3138
:10D780004FF0FF3000F070B9ADF1080C6DE904CE38
:10D7900000F006F8DDF804E0DDE9022304B070478C
:10D7A0002DE9F04F099E04468946002B40F0838006
:10D7B0008A42154645D9B2FA82F24AB1C2F120072F
:10D7C00001FA02F39540944020FA07F747EA03096B
:10D7D0004FEA154E230C1FFA85F8B9FBFEFC0EFB31
:10D7E0001C990CFB08F143EA094399420AD9EB184A
:10D7F0002CBF01200020994202D9002800F01D8191
:10D800000CF1FF3C591AA3B2B1FBFEF00EFB101154
:10D8100000FB08F843EA0144A04505D92C1902D2BF
:10D82000A04500F20E810138A4EB080440EA0C4048
:10D8300000271EB1D4400023C6E900433946BDE8A5
:10D84000F08F002A51D0B2FA82F2002A40F0AF8065
:10D85000491B4FEA154E1FFA85F80127230CB1FB2F
:10D86000FEFC0EFB1C1108FB0CF043EA014398423E
:10D870000AD9EB182CBF01210021984202D90029B6
:10D8800000F0D7800CF1FF3C191AA3B2B1FBFEF0F7
:10D890000EFB101108FB00F843EA0144A04505D92E
:10D8A0002C1902D2A04500F2C1800138A4EB080473
:10D8B00040EA0C40BDE78B4208D9002E74D0002707
:10D8C000C6E9000138463946BDE8F08FB3FA83F760
:10D8D00067B98B42C0F0A480824240F2A1803846F2
:10D8E000002EABD0C6E90049A8E7FFDEC7F120054E
:10D8F000BB4002FA07FC01FA07F4EA4020FA05F8F7
:10D90000E94000FA07FE1A4348EA04044FEA1248C5
:10D91000200C1FFA82F9B1FBF8FA08FB1A110AFB76
:10D9200009FB40EA01418B450AD951182CBF01235C
:10D9300000238B4502D9002B00F088800AF1FF3AC2
:10D94000A1EB0B01A4B2B1FBF8F008FB101100FB36
:10D9500009F944EA0141894504D9511801D28945A0
:10D960007BD8013840EA0A40A1EB0901A0FB0C89F1
:10D97000494544464B4602D306D1C64504D2013838
:10D98000B8EB0C0469EB0203002E5DD0BEEB040281
:10D9900061EB030101FA05F522FA07F3F9400027CC
:10D9A0001D43C6E9005149E73746304646E7C2F114
:10D9B0002000954001FA02F721FA00F34FEA154ED4
:10D9C00024FA00F11FFA85F894403943B3FBFEF0C6
:10D9D0000F0C0EFB103300FB08FC47EA03439C4589
:10D9E00007D9EB182CBF012700279C4500D98FB31E
:10D9F0000138A3EB0C0389B2B3FBFEF70EFB173320
:10DA000007FB08FC41EA03418C4504D9691801D29F
:10DA10008C4525D8013FA1EB0C0147EA00471DE7E3
:10DA2000841A61EB03030120994659E702382C441C
:10DA30003CE7ACF1020C2B4426E7ACF1020C2B4482
:10DA4000E0E602382C44EFE63746F7E6AAF1020A90
:10DA5000114475E702382B44CBE70238114481E7C3
:10DA6000023F2944D7E700BF704700BF08B5014611
:10DA7000024800F07BFA002008BD00BF48090220E0
:10DA800008B5024800F07AFA002008BD48090220D3
:10DA90000146014800F074BA4809022010B584B06C
:10DAA0000DF10F04CDE900420A4601460348FEF796
:10DAB00083FD9DF90F0004B010BD00BF480902208E
:10DAC00010B584B00DF10F04CDE900420A460146BD
:10DAD000034800F069F89DF90F0004B010BD00BFC5
:10DAE0004809022000B583B0009313460A46014658
:10DAF000024800F05FFA03B05DF804FB4809022019
:10DB000000B583B0009313460A460146024800F070
:10DB10009FFA03B05DF804FB4809022070B586B097
:10DB20000DF113040A9E009305AD134602940A46B4
:10DB300001960146039505480B9C00F05DF9059B95
:10DB40009DF91300236006B070BD00BF4809022094
:10DB500070B586B00DF113040A9E009305AD13460F
:10DB600002940A4601960146039505480B9C00F075
:10DB7000A1F9059B9DF91300236006B070BD00BF9D
:10DB80004809022000B585B00DF10F03CDE9003240
:10DB900002460B460348FEF753FB9DF90F0005B004
:10DBA0005DF804FB480902202DE9F04F89B01E46BC
:10DBB000129B4FF0000C83F800C0357804460B46EA
:10DBC000DDB1DDF84C904FF0000801276FF0704E8A
:10DBD0000020002107EB0E0509EB0515C5E9000142
:10DBE00085F80DC0C5F8088085F80CC085F80EC012
:10DBF00001373578FFB2BD42ECD2002A75D0597B8F
:10DC000001F1FF3A5FFA8AF5172D00F29F80764FF7
:10DC100047FA05F0C00740F199804FF0010A5046DD
:10DC2000BC460AFA05FA864689461D460027039136
:10DC300013E095F80D9009F1FF385FFA88F8B8F114
:10DC4000170F4CFA08FB0EFA08FA7FD81BF0010FE9
:10DC50007CD01AEA070F40F0B6806449D5ED027A0D
:10DC60008944013019F8018C04EB880B9BEDC17AD3
:10DC7000C0B2F4EEC77A08F12E09F1EE10FA00F105
:10DC8000805804EBC90947EA0A0708F1FF3800F198
:10DC900094809BEDC97AF4EEC77AF1EE10FA00F3A6
:10DCA0008C80D5E900AB03EB0815D9E90089CB4599
:10DCB00008BFC24504D112994FF0040881F80080D2
:10DCC0008242B6D2013AD2B203F1100703991D463F
:10DCD00007EB021700E0697B95ED020AF5E80423E3
:10DCE000204601F09DFDBD42F5D1204601F0A2F88D
:10DCF00096F80090B9F1000F6BD00023DFF8F080A8
:10DD0000DFF8F0B099464FF6FF7A48FA03F25D1C4F
:10DD1000D207EFB20CD513F80B3003F25B13394680
:10DD200034F813305345204602D001F09DFCB8B9B9
:10DD3000152D2B46E9D10023C4F89432204600F07B
:10DD400077FA86F8009009B0BDE8F08F129AFF23A9
:10DD500013704FF0000986F8009009B0BDE8F08F0D
:10DD60000DF11303009305AA06AB3946204601F0D6
:10DD700057FC33784B4509F1010209D8129A032365
:10DD800013700023C4F89432204600F051FAD8E70B
:10DD90005FFA82F91398DDE9062309F18051013910
:10DDA00000EB0111C1E9002305989DF813304F7372
:10DDB000012288600A738B73BAE7129AFE231370EC
:10DDC0004FF00009C7E7129AFA2313704FF00009C9
:10DDD000C1E7129A022313700023C4F8943220463C
:10DDE00000F026FAADE700BF0F20E000E06303007B
:10DDF000EF791200C86303002DE9F04F85B0DDE92B
:10DE00001057DF242C7000261024172B3E6003943B
:10DE100028D939BB1E46914680460B4629708B4651
:10DE200040F2173A02E00A2C23461ED05C1C4AFA44
:10DE300003F3DB07E1B2F6D5CDF800B0DDE90E2340
:10DE4000404601F015FB0028EDD00F9B01930E9B7F
:10DE5000009303AA03463146484600F0C5F92870EE
:10DE60000028E0D005B0BDE8F08F95F90030002B18
:10DE7000F8D14046DDE90E1200F044FB68B995F98F
:10DE80000040002CEED1039B3B604846394600F031
:10DE9000E3FA2C7005B0BDE8F08F0F9B01930E9B49
:10DEA00000933146034603AA484600F09DF9044614
:10DEB0002870E6E72DE9F04F85B0DDE91057DF2443
:10DEC0002C7000261024182B3E60039428D939BBEF
:10DED0001E46914680460B4629708B4640F2173A03
:10DEE00002E00A2C23461ED05C1C4AFA03F3DB072F
:10DEF000E1B2F6D5CDF800B0DDE90E23404601F0E1
:10DF000023FB0028EDD00F9B01930E9B009303AAE7
:10DF100003463146484600F067F928700028E0D0F3
:10DF200005B0BDE8F08F95F90030002BF8D100F076
:10DF300063FB68B995F90040002CF1D1039B3B606D
:10DF40004846394600F088FA2C7005B0BDE8F08FDD
:10DF50000F9B01930E9B00933146034603AA48464C
:10DF600000F042F904462870E6E700BF04230120D0
:10DF7000072208708A704B70CB70704700F0B8B8F9
:10DF80000139032901D90020704710B504466830D3
:10DF900002F090FD2046012101F0E6FC044B2366CF
:10DFA00020466366022101F0DFFC002010BD00BFA7
:10DFB0000000C8412DE9F04F89B0884616460DF1A2
:10DFC000160A0DF1180907461C46129ACDF8009062
:10DFD00053463146404600F003FD9DF916301BBB09
:10DFE000083E0DF11C0B069D129BB5422246494688
:10DFF000404627D20DF11705CDF808B0CDE900A5B0
:10E0000000F044FB9DF916302146384663B99DF86F
:10E010001750079BFE2D1A460AD100F05FFD0346FC
:10E020008DF81600002BDED0184609B0BDE8F08F41
:10E030002946224600F0C8FE03468DF81600002B44
:10E04000D1D0F1E79DF91630184609B0BDE8F08F40
:10E050002DE9F04F8BB00F4616460DF11E090DF15C
:10E06000200882461C46149ACDF800804B46314663
:10E07000384600F0B5FC9DF91E3023BB0DF11F039F
:10E08000083E0DF1240B0593089D149BB5422246D2
:10E090004146384626D2059DCDF808B0CDE9009519
:10E0A00000F0F4FA9DF91E30204663B99DF81F2058
:10E0B000099BFE2A19460AD100F0C4FD03468DF8DB
:10E0C0001E00002BE0D018460BB0BDE8F08F1146C3
:10E0D0005046224601F06EFB03468DF81E00002BD1
:10E0E000D2D0F0E79DF91E3018460BB0BDE8F08F96
:10E0F00010B5044600F0FCFD204600F041FC20462F
:10E1000000F01EFB204610BD2DE9F0470646324FB9
:10E11000324D01F023FB002302E0152C234610D0E2
:10E1200047FA03F25C1CD007E1B2F6D55B5D06EB63
:10E1300043033046B3F8282401F0CAFB152C2346CC
:10E14000EED1304601F098FA234FDFF89080DFF8E7
:10E150009490002502E00135152D1BD047FA05F3F8
:10E16000DA07F8D515F80830334493F84534002B16
:10E17000F1D039F915A0002302E00A2C2346EAD099
:10E180005C1C4AFA03F3DB07E1B2F6D5304601F036
:10E1900067FBF2E70024214686F85A440E2206F275
:10E1A000464026F040FC0E4B86F85644DB7803F2DE
:10E1B0005313214636F8130006F2124333F8022BAC
:10E1C000904201F1010103D00429F7D1BDE8F087A5
:10E1D00086F85614BDE8F087EF791200C863030093
:10E1E000E063030048630300F0B41668F4188C423F
:10E1F00018D805998B4218D883B104995F1C4D1E1D
:10E20000012100E0166844183444013115F8016F0B
:10E2100004F8016C8F42F5D114681C44146000208E
:10E22000F0BC70476FF02800FAE76FF02500F7E7C1
:10E2300090F85A3403B9704766E700BF70B40139EB
:10E24000134C039D645C04F25314002630F8144010
:10E250001E704FF6FF76B4422C8010D0B0F8546494
:10E26000B6FBF4F504FB1564A4B254B9012490681C
:10E270001C70C9B204FA01F101431475916070BCBD
:10E28000704790F85B040028F0D170BC704700BF65
:10E29000E06303002DE9F0416A4C6B4E00236FF000
:10E2A00000454FF6FF7744FA03F2D20740F1B08001
:10E2B000F25C2A4431F81220B2F5E16F00F0A88038
:10E2C000BA4200F0A580B0F80EC45E4D644600234B
:10E2D0006FF0004745FA03F2D20706D5F25C3A44E4
:10E2E00031F81220944228BF14460133152BF1D186
:10E2F0004FF6FF7294421FD0BCFBF4F304FB13C330
:10E300009BB2002B40F09B804E4F6FF0004C47FAC1
:10E3100003F5ED070DD5F55C654431F815E096453C
:10E3200007D0BEFBF4F504FB15E5ADB2002D40F0BF
:10E3300086800133152BEAD14FF6FF75434A414FD2
:10E34000AE4600236FF0004852F8044B240747FA0A
:10E3500003FC02D51CF0010F5FD10133152BF3D163
:10E360004FF6FF739D4266D000F21242002302E096
:10E370000133042B09D032F8024BAC42F8D100EB48
:10E380004303B3F81A3404339BB22E4D9FED306A29
:10E39000DFED306A00246FF000474FF6FF7C45FA4E
:10E3A00004F2D2072ED590F857E490F8598490F8EB
:10E3B00058244FEA4E0E4FEA48085FFA8EFE5FFA85
:10E3C00088F85200C644D2B272441A4492B207EEA0
:10E3D000902AF8EE677A325D67EE867A3A4487EEE5
:10E3E000A67A31F8122007EE902AF8EEE77AF4EEDA
:10E3F000C77AF1EE10FA05D5624503D06FF011002F
:10E40000BDE8F0810134152CC9D10020BDE8F081B0
:10E410000133152B7FF447AFF7E7F45C444431F840
:10E420001440744599D0754507D0AC4295D06FF033
:10E430001000BDE8F0810423A7E725468DE76FF0C3
:10E440000F00E3E7EF791200C86303007463030071
:10E450000000C84200007A4470B588B008AE284B6E
:10E4600046F8183D044604220D4603A8314626F01E
:10E47000A0FA03AA631EE01C12F8011B03F8011F97
:10E480008342F9D1002308A93D2261E9042306A8AB
:10E49000082226F08EFA06A90822201D26F089FA05
:10E4A0002B683146103B03A80422029326F081FA20
:10E4B0009DF80C009DF80D109DF80E209DF80F3072
:10E4C0002073A273E3736173296801AA204603F0E5
:10E4D00059FB2B689DF804009DF805102344002289
:10E4E00018712B68234459712B6823449A712B6847
:10E4F0001C44E2712B6808332B6008B070BD00BF6C
:10E50000040704012DE9F04385B004AC072504F8A5
:10E51000095D06461746FE2022460D4603F0B6FA70
:10E520009DF807200390DAB1012406F57C7906F501
:10E530005278631E062B0ED8DFE803F03F355349AF
:10E540002C2304003A4603AB2946B6F80E0401F02A
:10E55000DDFA9DF807200134E4B2A242E9D2039823
:10E5600004A9022221F8060D02A826F022FA9DF83D
:10E5700008209DF8093003982A706B7005B0BDE83B
:10E58000F0833A4603AB2946484601F0D5FD9DF895
:10E590000720E0E73A4603AB2946404601F08AFDF2
:10E5A0009DF80720D7E73A4603AB294696F858046A
:10E5B00001F05CFB9DF80720CDE73A4603AB294606
:10E5C00096F8570401F052FB9DF80720C3E73A463E
:10E5D00003AB294606F2124001F042FD9DF80720E8
:10E5E000B9E73A4603AB294696F8590401F03EFBD9
:10E5F0009DF80720AFE700BF0020704708B5F1EE97
:10E60000000A2DED028BF0EE408A1DF099FCF0EE31
:10E61000080AB0EE408AB0EE680A1DF091FC9FED4A
:10E62000155ADFED157ADFED155A9FED156ADFED0E
:10E63000156A9FED157A60EE277A28EE058A28EE96
:10E64000A80A38EE278A20EE250A68EE868A38EE78
:10E65000000A30EE280A30EE260A20EE070A1DF0E6
:10E6600077FBBDEC028BBCEEC00A10EE103A98B2FC
:10E6700008BD00BF598207B0DFE0C2343767D9B8A0
:10E680005A8E863C6A92E43E00007A442DE9F047B7
:10E6900082B0DDE90A790C460021397089F8001052
:10E6A0002168054608449046427815F801C08DF867
:10E6B000052001A902220DF106009A468DF804C03A
:10E6C00026F077F9BDF806000C9B5045186018D865
:10E6D00068B108F1FF31471C01232668EA1832446B
:10E6E000013312F8012C01F8012F9F42F5D198F85F
:10E6F000023089F8003023680344236002B0BDE88B
:10E70000F087E0233B7002B0BDE8F0870B4B194463
:10E7100010B411F8013C00EB4301B1F828449442D5
:10E7200004D0013B0344012483F846440123A1F8AB
:10E7300028245DF8044B80F85A347047C8630300FE
:10E740002DE9F041052306460221012280F85714E5
:10E7500080F8582480F85934182200F21240754984
:10E7600006F2463526F025F92C4606F2EE324FF633
:10E77000FF7324F8023FA242FBD140F2DC516E4B02
:10E78000DFF8E4C16D4F6E48DFF8E0E1DFF8E081CB
:10E790006C4AA6F8E0134FF06411C6F8DCE3C6F843
:10E7A00060C3C6F86CC3C6F848C3C6F84CC3C6F805
:10E7B00058C3C6F8B833C6F8BC33C6F8C033C6F879
:10E7C000C433C6F8C833C6F8D033C6F86413C6F8E5
:10E7D0006813C6F87413C6F87C13C6F85013C6F84D
:10E7E0007083C6F88073C6F88473C6F88873C6F859
:10E7F0008C73C6F89073C6F89873C6F89C03C6F875
:10E80000A003C6F8A403C6F8A803C6F8AC03C6F86C
:10E81000B403C6F85423C6F85C1340224A49C6F82C
:10E82000E8E3C6F878C3C6F89473C6F8B003C6F830
:10E83000CC3306F5427026F0BCF8444A4449DFF870
:10E840003481DFF834E1DFF834C1424F4248C6F882
:10E85000102300234FF08042C6F80C33C6F808336B
:10E86000C6F81C33C6F82033C6F82433C6F83C2358
:10E87000C6F84023C6F84413C6F81483C6F830E33C
:10E88000C6F82CC3C6F82873C6F83403234606F22C
:10E890000A414FF6FF7223F8022F9942FBD147F24B
:10E8A00030520023A6F80E24A6F810344FF6FF715C
:10E8B00035F8023F8B4205D0B6F810249A4238BF93
:10E8C000A6F81034A542F3D12448254C254F002347
:10E8D000012540FA03F2D20716D5D95D1A5D21440D
:10E8E00002F2F71211F8011C36F812C006EB4102D1
:10E8F0000139B2F828E4E6451CBF891981F846546D
:10E90000A2F828C486F85A540133152BE1D106F237
:10E91000454306F25341012203F8012F8B42FBD1FC
:10E9200096F85A340BB9BDE8F0813046BDE8F041A5
:10E93000FFF7EABB04630300701770172C012C016A
:10E940000807080764003075C4620300000082C233
:10E95000000010410024F449806A494BEF7912000D
:10E96000C8630300AC62030030753075DC05DC055C
:10E970003075640000002A430000FA420000C842DB
:10E9800070B40022002300F53C74002180F8561476
:10E99000A0F8541400F54075C4E9002300F53E7654
:10E9A00047F23054C6E90023C5E90023A0F80C441F
:10E9B00000F5856300F2454200F244454FF6FF74CE
:10E9C00023F8024FAB4202F8011FF9D1662380F809
:10E9D0005A1480F85B1480F85C3470BC704700BF38
:10E9E000F0B589B000240E9D17292C6020D99142E2
:10E9F0001AD803AC421EC71C12F8016F04F8016B51
:10EA0000BA42F9D1042204460F4602A803A91E46C1
:10EA100025F0CFFF029B304A93420DD001330BD03B
:10EA2000DE23337009B0F0BDDA221A7009B0F0BDF0
:10EA3000DB221A7009B0F0BD0822211D06A825F0BE
:10EA4000B8FF082206A904A825F0B3FFDDE90423D6
:10EA5000002B08BF3D2A07D0002B08BFB2F1FF3FB3
:10EA600002D0DD233370E1E7227B637B8DF80C203D
:10EA7000A27B8DF80D308DF80E20E37B8DF80F30E2
:10EA800003A902A8042225F094FF029D05F11803B2
:10EA9000BB4202D0D8233370C8E701AA204605F153
:10EAA000100103F06FF860199DF80420037D9A426D
:10EAB00002D0DC233370B9E79DF80520437D9A42EC
:10EAC000F7D1837D002BF4D1C37D002BF1D10E99BA
:10EAD00010220A603370A9E7040704012DE9F04110
:10EAE000BCB003AB04AECDE9003604460DF10B0318
:10EAF000FE200F4602F09CFF9DF90B00002866D116
:10EB0000022504F57C786B1EDBB2023B052B04D892
:10EB1000DFE803F08A83776B600E3146384601F0F8
:10EB200091F8082D84F8570408D00135EDB2EAE7D2
:10EB30003146384600F0D2FFA4F80E040023A4F8B2
:10EB4000103404F2EE3504F246334FF6FF7033F81A
:10EB5000022F824205D0B4F81014914238BFA4F8B5
:10EB60001024AB42F3D13448344D354F00230126F5
:10EB700040FA03F2D20716D5D95D5A5D294402F254
:10EB8000F71211F8011C34F812C004EB41020139EC
:10EB9000B2F828E4E6451CBF091981F84664A2F8DA
:10EBA00028C484F85A640133152BE1D104F245439B
:10EBB00004F25341012203F8012F8B42FBD194F858
:10EBC0005A3413B12046FFF79FFA9DF90B003CB071
:10EBD000BDE8F0810BAA3146384601F03DF91C2210
:10EBE0000BA9404625F0E5FE9FE712AA31463846BC
:10EBF00001F0F0F812A9A82204F5527025F0D9FE10
:10EC000093E705AA3146384601F0A2F805A9182273
:10EC100004F2124025F0CDFE87E73146384601F078
:10EC200011F884F8590480E73146384601F00AF8B3
:10EC300084F8580479E700BFEF791200C863030035
:10EC4000AC620300032916D910B582B0027843786C
:10EC50008DF804200446022201A90DF106008DF86A
:10EC6000053025F0A6FEA378FE2B0CBF00206FF028
:10EC7000630002B010BD6FF0670070470139194B97
:10EC80005B5C00EB430370B4B3F89A424FF6FF723B
:10EC9000944206D0144AD0F8984232F91120A24387
:10ECA00002D0002070BC7047104AD0F880525256F3
:10ECB000AA43F6D1B3F8DE52B3F8D2626A1C95B219
:10ECC000B5FBF6F206FB125292B2A3F8DE22002A3E
:10ECD000E7D1012202FA01F32343C0F8983210462B
:10ECE000E0E700BF3C6303001C63030030630300E4
:10ECF000F8B5044601F0F6FF04F5987002F0BCFC8C
:10ED000004F12C0002F002FA04F1680001F0AAFA02
:10ED100004F1C800FDF7FCFD0A2104F5B07002F013
:10ED2000B9F8002604F50A7304F5BC7204F51275EF
:10ED30000020002143F8046BAB42E2E80201F9D164
:10ED400000204FF0000CC4F8800204F5D87104F2E2
:10ED5000832204F520750026002743F804CBAB423C
:10ED6000E1E9026702F8010FF7D1C4F89402C4F890
:10ED7000980204F5277304F52A75012000214FF647
:10ED8000FF721887A3F8441023F8022B9D42F8D194
:10ED9000A4F8A822A4F8AA22A4F8AC22A4F8AE22CF
:10EDA000A4F8B022A4F8B222A4F8B422A4F8B6229F
:10EDB00004F2B62304F2D2214FF6FF7223F8022F99
:10EDC0008B42FBD12046F8BD10B44C1E1146092CD5
:10EDD0002BD8DFE804F00B11172A232A2A2A051C56
:10EDE0001A46C8305DF8044BFDF7DABD1A466830A4
:10EDF0005DF8044B01F072BA1A462C305DF8044BF2
:10EE000002F0DABB1A465DF8044B01F077BF1A46F0
:10EE100000F5B0705DF8044B02F048B81A4600F5F2
:10EE200098705DF8044B02F0E1BD6FF063005DF88F
:10EE3000044B70472DE9F0432DED028B00239BB06E
:10EE40009FEDAE8AC0F89832052104468DF8123045
:10EE50008DF813308DED058A8DED068A8DED078ACC
:10EE60008DED148A8DED158A8DED168A8DED178A3C
:10EE70008DED188A8DED198A8DED088A8DED098A40
:10EE8000FFF7FCFE002800F09080D4ED917AF4EEBC
:10EE9000487AF1EE10FA00F0358103212046984DB2
:10EEA0004FF0FF366FF00047FFF7E8FE002840F014
:10EEB000888001212046FFF7E1FE38B1D4ED917A38
:10EEC000F5EE407AF1EE10FA00F079810221204649
:10EED000FFF7D4FE38B1D4ED917AF5EE407AF1EE39
:10EEE00010FA00F0AB8109212046FFF7C7FE38B1C8
:10EEF000D4ED917AF5EE407AF1EE10FA00F05082FE
:10EF00009FED7E8A0A212046FFF7B8FE38B1D4ED86
:10EF1000917AF5EE407AF1EE10FA00F074826B7996
:10EF200003F25B114FF6FF7234F81110914203F1B6
:10EF3000FF3604D0D4F88022570700F1BD80AB79AA
:10EF400003F25B114FF6FF7234F81110914203F196
:10EF5000FF3604D0D4F88022D00700F18B80EB7903
:10EF600003F25B114FF6FF7234F81110914203F176
:10EF7000FF3603D0D4F88022910759D42B7A03F2BC
:10EF80005B114FF6FF7234F81110914203F1FF3517
:10EF900003D0D4F88022120728D40023C4F880328A
:10EFA0001BB0BDEC028BBDE8F083554D4FF0FF3632
:10EFB0006FF0004703212046FFF760FE00283FF472
:10EFC00078AFD4ED917AF5EE407AF1EE10FA7FF455
:10EFD00070AF07AB06AA05A994ED8B1AD4ED8C0A85
:10EFE00094ED8D0A204601F0A3FE62E704F5C87295
:10EFF000D2E9000103F1360204EB8303D4F8346252
:10F00000C3F8446204EBC2029FED3C0AC2E900016E
:10F010001CF09EFEFCEEC07A254417EE903A85F86F
:10F020008432D4F8943243F48073C4F89432B4E751
:10F0300004F5C072D2E9000103F1360204EB830348
:10F04000D4F82C72C3F8447204EBC2029FED2B0A71
:10F05000C2E900011CF07CFEFCEEC07A264417EEEB
:10F06000903A86F88432D4F8943243F08003C4F89E
:10F07000943283E704F5BC72D2E9000103F1360251
:10F0800004EB8303D4F82872C3F8447204EBC20281
:10F090009FED1A0AC2E900011CF05AFEFCEEC07A8C
:10F0A000264417EE903A86F88432D4F8943243F02E
:10F0B0004003C4F8943252E704F5C472D2E9000167
:10F0C00003F1360204EB8303D4F83072C3F84472C0
:10F0D00004EBC2029FED090AC2E900011CF038FEF0
:10F0E000FCEEC07A264417EE903A86F88432D4F8C3
:10F0F000943243F02003C4F8943220E7000000006B
:10F10000C863030004F5C873D3E900670DF1120169
:10F1100009AB0DF11300CDE90010029304F59870CE
:10F1200032463B4602F0C4FACF4D9DF81220EB7AEE
:10F1300007EE902A03F13602F8EE677A04EB8301BA
:10F1400004EBC202C1ED917AB0EE480AC2E9006751
:10F1500003F1FF381CF0FCFDFCEEC07AA04417EE72
:10F16000902A88F884229DF813202B7BD4F89412DF
:10F1700007EE902A03F13602F8EE677A04EBC2023A
:10F1800004EB830041F40061C4F89412B0EE480A25
:10F19000C0ED917AC2E9006703F1FF381CF0D8FD99
:10F1A000FCEEC07A04EB080317EE902A83F8842261
:10F1B000D4F8943243F48053C4F89432FAE6D4ED90
:10F1C0008F7AD4ED901A9DF813209DF812109DEDC2
:10F1D000071ADDED060A9DED050AF5EE407AF1EE1F
:10F1E00010FA0DF1200C14A814BF01230023CDE95F
:10F1F000000C04F1680001F0CDF86B7C08989FEDDD
:10F200009B0A03F1360204EB830104EBC202C1F84E
:10F210004402C2E9006703F1FF381CF099FDFCEEDF
:10F22000C07A04EB080317EE902A83F88422D4F8FE
:10F23000943243F40033C4F8943247E612A910AA7A
:10F240000EABDDED090A9DED080A0093CDE9012121
:10F250000CAB0AAA14A904F12C0001F087FF2B784B
:10F260000A989DED0B0A04EB830103F1360204EBCF
:10F27000C202C1F84402C2E9006703F1FF381CF082
:10F2800067FDFCEEC07AA04417EE902A6B7888F8F0
:10F290008422D4F89412DDF830C09DED0D0A04EB01
:10F2A000830003F1360241F0010104EBC202C4F80D
:10F2B0009412C0F844C2C2E9006703F1FF381CF0A1
:10F2C00047FDFCEEC07AA04417EE902AAB7888F890
:10F2D0008422D4F89412DDF838C09DED0F0A04EBB7
:10F2E000830003F1360241F0020104EBC202C4F8CC
:10F2F0009412C0F844C2C2E9006703F1FF381CF061
:10F3000027FDFCEEC07AA04417EE902AEB7888F82F
:10F310008422D4F89412DDF840C09DED110A04EB6C
:10F32000830003F1360241F0040104EBC202C4F889
:10F330009412C0F844C2C2E9006703F1FF381CF020
:10F3400007FDFCEEC07AA04417EE902A2B7D88F8CA
:10F350008422D4F89412DDF848C09DED130A03F11D
:10F36000360204EB830004EBC20241F00801C4F84A
:10F370009412C0F844C2C2E9006703F1FF381CF0E0
:10F38000E7FCFCEEC07A04EB080317EE902A83F842
:10F390008422D4F8943243F48013C4F89432A2E562
:10F3A00004F5C473D3E90089B4F86A30D4ED8E0A49
:10F3B00094ED8C0A029332463B4604F1C800CDE935
:10F3C0000089FDF737FB6B7B03F1360204EB830109
:10F3D00004EBC202B0EE408A81ED918A9FED230AD0
:10F3E000C2E900895E1E1CF0B3FCFCEEC07AA319D2
:10F3F00017EE902A83F88422D4F8943243F4005311
:10F40000C4F894327EE504F5C473F0EE480A94ED36
:10F410008B1A94ED8C0A04F5B070D3E9006701F003
:10F420005FFDAB7B03F13602F0EE407A04EB830123
:10F4300004EBC202C1ED917A9FED0C0ACDED057A85
:10F44000C2E900675E1E1CF083FCFCEEC07AA319C3
:10F4500017EE902A83F88422D4F8943243F4804340
:10F46000C4F894325BE500BFC863030000000000ED
:10F47000F0B585B0002401391F46064615460394B1
:10F480009DF8283009295CD8DFE801F00C131A5BDD
:10F49000535B5B5B054B3A462946C830FDF74EFB94
:10F4A00005B0F0BD3A462946683001F0BFF905B015
:10F4B000F0BD3A4629462C3001F03EFF05B0F0BDC4
:10F4C00004AA012402F8094D2946007802F0DEFA68
:10F4D0009DF807300390A3B1203603E00134E4B275
:10F4E000A3420DD3012CF9D103AB3A46294630464D
:10F4F00000F08EFA01349DF80730E4B2A342F1D255
:10F50000039804A9022221F8060D02A825F051FA59
:10F510009DF808209DF8093003982A706B7005B09B
:10F52000F0BD3A46294600F5B07001F023FD05B064
:10F53000F0BD3A46294600F5987002F03FF905B053
:10F54000F0BD0020ACE700BFF0B585B00024013964
:10F550001F460646154603949DF8283009295CD8B5
:10F56000DFE801F00C131A5B535B5B5B054B3A461B
:10F570002946C830FDF746FB05B0F0BD3A4629469E
:10F58000683001F0CDF905B0F0BD3A4629462C307F
:10F5900001F050FF05B0F0BD04AA012402F8094DA6
:10F5A0002946007802F072FA9DF807300390A3B163
:10F5B000103603E00134E4B2A3420DD3012CF9D19B
:10F5C00003AB3A462946304600F022FA01349DF852
:10F5D0000730E4B2A342F1D2039804A9022221F831
:10F5E000060D02A825F0E5F99DF808209DF80930E0
:10F5F00003982A706B7005B0F0BD3A46294600F5B5
:10F60000B07001F0EDFC05B0F0BD3A46294600F5BA
:10F61000987002F015F905B0F0BD0020ACE700BF0E
:10F62000F0B401390F4C049D645C00EB840704F1D5
:10F630003606D7F84472176000EBC606D6E90067B5
:10F64000C3E900670444012294F883322B70D0F898
:10F65000943202FA01F123EA0103C0F89432F0BCBB
:10F66000704700BFC8630300D0F894020139C9B2E3
:10F67000084100F0010070472DE9F04F3249DFF8F2
:10F68000D4A0324ADFF8D090002540F217374FF669
:10F69000FF7C47FA05F3DE074ED52D4B13F805E046
:10F6A00000EB4E0EBEF89A82E04545D000231E4680
:10F6B0004FEA450B47FA03F4E4070FD53BF90A403C
:10F6C0001C41E4070AD5224CE45C00EB4404B4F886
:10F6D0009A42644502D0A64238BF264601330A2B1F
:10F6E000E8D1002342FA03F4E4070FD591F9004072
:10F6F0001C41E4070AD513F8094004F2531430F80A
:10F700001440644502D0A64238BF26460133182B68
:10F71000E8D18EB1B8FBF6F406FB14881FFA88F323
:10F72000A4B23BB106F0010808EB5606B342A4BFF1
:10F730000134A4B2AEF8D24201350A2D01F1010123
:10F74000A7D1BDE8F08F00BF306303000F20E000B9
:10F750003C6303001C630300E063030030B400F566
:10F76000277300F52A75012400214FF6FF721C87CC
:10F77000A3F8441023F8022B9D42F8D1A0F8A82248
:10F78000A0F8AA22A0F8AC22A0F8AE22A0F8B022DD
:10F79000A0F8B222A0F8B422A0F8B62200F2B62354
:10F7A0004FF6FF7200F2D22023F8022F8342FBD1E2
:10F7B00030BC704710B44C1E1146092C2BD8DFE822
:10F7C00004F00B11172A232A2A2A051C1A46C830CE
:10F7D0005DF8044BFDF750BA1A4668305DF8044BEB
:10F7E00001F00CBA1A462C305DF8044B01F064BEEF
:10F7F0001A465DF8044B01F0FFBA1A4600F5B070E6
:10F800005DF8044B01F022BC1A4600F598705DF8D3
:10F81000044B02F077B86FF063005DF8044B70475B
:10F82000F0B401390D4C655C00EBC50404F5B87407
:10F83000D4E900679F4208BF96420DD000EB8505D2
:10F8400085ED890AC4E900230122D0F8803202FA4A
:10F8500001F10B43C0F88032F0BC7047E063030055
:10F860004B1EDAB2092A00D97047184A114411F820
:10F87000012C00EB4202B2F89A12092BF4D801A233
:10F8800052F823F0B5F80000BBF80000C1F8000002
:10F8900069F80000ADF8000069F8000069F80000A0
:10F8A00069F8000069F80000C5F8000000F59870DC
:10F8B00002F066B8683001F015B92C3001F01CBEBA
:10F8C00001F0BABA00F5B07001F0DABB3C63030096
:10F8D00001391F4B5B5C03F25B13F0B41D4E1E4FEE
:10F8E00020F8132040F21735002345FA03F4E4070B
:10F8F0000DD536F911401C41E40708D5FC5C00EB3E
:10F900004404B4F89AC2944588BFA4F89A220133FB
:10F910000A2BEAD1114D124EDFF848C0002345FAF8
:10F9200003F4E7070ED556F821401C41E40709D53A
:10F930001CF8034000EB4404B4F8A672974288BF59
:10F94000A4F8A6220133182BE9D1F0BC704700BF00
:10F95000C8630300486303003C6303000F20E0001A
:10F9600074630300E06303004B1EDAB2092A00D976
:10F970007047184A114411F8012C00EB4202B2F80A
:10F980009A12092BF4D801A252F823F0BDF9000015
:10F99000C3F90000C9F9000071F90000B5F90000D1
:10F9A00071F9000071F9000071F9000071F90000AF
:10F9B000CDF9000000F5987001F0E2BF683001F069
:10F9C00091B82C3001F098BD01F036BA00F5B07056
:10F9D00001F056BB3C63030070B50E460968034650
:10F9E00000F10B0584B0481E0D44034401A913F82F
:10F9F000014F01F8014BAB42F9D101A910460C228D
:10FA000024F0D7FF33680C33336004B070BD00BFFF
:10FA10002DE9F0411C680C34944284B004D90132C1
:10FA20001A6004B0BDE8F0810C228846014601A8A6
:10FA30001F4624F0BEFF01A8002208EB02053C6827
:10FA400010F8016B2E5501320C2AF6D13B680C33AD
:10FA50003B6004B0BDE8F08130B50D46096883B065
:10FA60000DF1FF3308440DF1070410F8011B03F8F2
:10FA7000011FA342F9D110466946082224F099FFDC
:10FA80002B6808332B6003B030BD00BFF0B51D6894
:10FA90000835954285B003D901321A6005B0F0BD32
:10FAA00008220F46014668461C4624F082FF0822C1
:10FAB0000DEB0200694624F07CFF0DF107030022E4
:10FAC000BD18206813F8016F2E540132082AF7D1AF
:10FAD00023680833236005B0F0BD00BF10B50B6884
:10FAE000C21882B00C465278C35C8DF8052001A97B
:10FAF00002220DF106008DF8043024F05AFF23682D
:10FB0000BDF806000233236002B010BD30B51C689A
:10FB100085B002349442ADF8060003D901321A6070
:10FB200005B030BD1C460D4602220DF1060103A8AA
:10FB300024F03FFF23689DF80C20EA5421689DF8CB
:10FB40000D3029444B7023680233236005B030BD6B
:10FB500030B50C4683B02368C518014610466A7854
:10FB6000CB5C8DF8052001A902228DF8043024F029
:10FB700020FF23680233236003B030BD30B51C681A
:10FB80000234944283B01AD81C46027843788DF828
:10FB900004200D46022201A968468DF8053024F0A4
:10FBA00008FF23689DF80020EA5421689DF8013081
:10FBB0000D446B7023680233236003B030BD013203
:10FBC0001A6003B030BD00BF10B50B6882B00C46A0
:10FBD000011D1944184401AB10F8012B03F8012B47
:10FBE0008842F9D101A90422684624F0E2FE236884
:10FBF0009DED000A0433236002B010BD70B5136898
:10FC0000043384B08B428DED010A03D901311160B8
:10FC100004B070BD144604220DEB0201054603A892
:10FC200024F0C7FE03AA0023E818216812F8016B2C
:10FC300046540133042BF7D123680433236004B006
:10FC400070BD00BF10B50C4682B0236802A9C35C2A
:10FC500001F8013D01220DF1060024F0AAFE2368FF
:10FC60009DF806000133236002B010BD30B51C685A
:10FC700085B0013494428DF8070003D901321A602F
:10FC800005B030BD1C460D4601220DF107010DF1F6
:10FC90000F0024F08EFE23689DF80F20EA5423689D
:10FCA0000133236005B030BD10B50A6884B00C463E
:10FCB0000DF107030DF10F01104410F8012B03F8AB
:10FCC000012F8B42F9D108220DEB0201684624F086
:10FCD00070FE2368DDE900010833236004B010BD25
:10FCE000F0B585B0CDE900010A9C256808359D4234
:10FCF00003D90133236005B0F0BD174608226946D9
:10FD00000DEB020024F055FE0DF107010023FD1854
:10FD1000206811F8016F2E540133082BF7D12368A6
:10FD20000833236005B0F0BD0B68C05C01330030C0
:10FD30000B6018BF0120704730B41C68651C9542E9
:10FD40009CBF08551A6801321A6030BC704700BF6A
:10FD500030B50B6887B0013B18440D460DF1FF33F9
:10FD60000DF1170410F8011F03F8011FA342F9D188
:10FD700010466946182224F01CFE2B6818332B60AD
:10FD800007B030BDF0B51C681034944289B003D977
:10FD900001321A6009B0F0BD10220DEB02070E46C9
:10FDA000014668461D4624F004FE10226946384686
:10FDB00024F0FFFD08AB3A462C68D01B204412F813
:10FDC000014B34549A42F7D12B6810332B6009B0A1
:10FDD000F0BD00BF30B50B68ABB0013B18440D4619
:10FDE0000DF1FF330DF1A70410F8011F03F8011FF7
:10FDF000A342F9D110466946A82224F0DAFD2B6807
:10FE0000A8332B602BB030BDF0B51D68043595428A
:10FE100083B01DD802460F461C4611885388ADF8A2
:10FE2000041004220DEB02016846ADF8063024F000
:10FE3000C0FD6B460022BD18206813F8016B2E54DC
:10FE40000132042AF7D123680433236003B0F0BDE4
:10FE500001321A6003B0F0BD30B50B6889B0013BC8
:10FE600018440D460DF103030DF11F0410F8011F96
:10FE700003F8011FA342F9D1104601A91C2224F066
:10FE800098FD2B681C332B6009B030BD30B51C6861
:10FE90000234944283B01AD81C46027843788DF815
:10FEA00004200D46022201A968468DF8053024F091
:10FEB00080FD23689DF80020EA5421689DF80130F8
:10FEC0000D446B7023680233236003B030BD0132F0
:10FED0001A6003B030BD00BF30B50B6885B0013B80
:10FEE00018440D460DF1FF330DF10F0410F8011FFA
:10FEF00003F8011FA342F9D110466946102224F0ED
:10FF000058FD2B6810332B6005B030BD30B51C6830
:10FF100085B0013494428DF8070003D901321A608C
:10FF200005B030BD1C460D4601220DF107010DF153
:10FF30000F0024F03EFD23689DF80F20EA5423684B
:10FF40000133236005B030BD70B50E46096882B03C
:10FF5000051D43180D4401A913F8014B01F8014B8D
:10FF6000AB42F9D101A91046042224F022FD3368E6
:10FF70000433336002B070BDF0B51D68083595429A
:10FF800083B003D901321A6003B0F0BD08220F46D6
:10FF9000014668461C4624F00CFD0DF1FF3300229B
:10FFA000BD18206813F8016F2E540132082AF7D1CA
:10FFB00023680833236003B0F0BD00BF30B50C46A2
:10FFC00083B02368C518014610466A78CB5C8DF86B
:10FFD000052001A902228DF8043024F0EAFC2368F0
:10FFE0000233236003B030BDF0B51C681434944272
:10FFF0008BB003D901321A600BB0F0BD14220DEBA7
:020000021000EC
:1000000002070E46014668461D4624F0D2FC142223
:100010006946384624F0CDFC0AAB3A462C68D01B22
:10002000204412F8014B34549A42F7D12B68143310
:100030002B600BB0F0BD00BF10B50C4682B023683A
:1000400002A9C35C01F8013D01220DF1060024F074
:10005000B0FC23689DF906000133236002B010BD97
:10006000F0B51C68183494428DB003D901321A607F
:100070000DB0F0BD18220DEB02070E460146684692
:100080001D4624F096FC18226946384624F091FC5F
:100090000CAB3A462C68D01B204412F8014B345468
:1000A0009A42F7D12B6818332B600DB0F0BD00BF1A
:1000B000FFF7D2BCF0B51C68A8349442D5B003D980
:1000C00001321A6055B0F0BDA8220DEB02070E46B2
:1000D000014668461D4624F06CFCA8226946384655
:1000E00024F067FC54AB3A462C68D01B204412F82D
:1000F000014B34549A42F7D12B68A8332B6055B08A
:10010000F0BD00BF30B50B6887B0013B18440D4609
:100110000DF103030DF1170410F8011F03F8011F7F
:10012000A342F9D1104601A9142224F042FC2B6805
:1001300014332B6007B030BDF0B51C681C349442FA
:1001400089B003D901321A6009B0F0BD01AF1C2299
:100150000E46014638461D4624F02BFC08AB3A46B5
:100160002C68D01B204412F8014B34549A42F7D12A
:100170002B681C332B6009B0F0BD00BF38B50C46AE
:100180002DED028B591ED4ED007A1546EABB90ED99
:10019000017A9FED318A00EB8303D3ED036A27EEEA
:1001A000088A38EE268A4388DFED2C5A06EE903A0C
:1001B00070EE678AF8EEE66AF5EEC08AF1EE10FAA4
:1001C00086EEA56A34DDDFED265AD0ED106A27EE03
:1001D000257A87EE260A20EE060AF4EEC08AF1EEB2
:1001E00010FAD8BFB0EE680A30EE270AB4EE480A1B
:1001F000F1EE10FA48BFB0EE480A0DB1B1EE400A78
:10020000BDEC028B84ED000A38BDF1EE677AC4EDD7
:10021000007A90ED017A9FED108A00EB830327EEC0
:10022000088AD3ED016AB1EE400A38EE668ABAE771
:1002300000EB8100D0ED117AB1EE460A80EE270A7C
:100240001BF0D4FDF7EE007A37EEC00AD4ED007A49
:1002500020EE280AC8E700BFC178C63D0000C842AA
:10026000CBBECB3E30B41749174DC16201244FF6C7
:10027000FF7104704FF07D54418044631349144C66
:10028000C563144D01640022002144648564022486
:10029000114D0477447780F84C4005638563A0F8DE
:1002A0004E10A0F8501001834183C0E9081181620B
:1002B0004265826582600261C2604261426030BC18
:1002C000704700BF8941003FD85500640000E144F9
:1002D00000C0A8474031774CCDCCCC3E2DE9F04F43
:1002E00087B004AB05AE05460078009301960DF18A
:1002F0000F030F4601F09CFB9DF90F0030BB044635
:1003000005F13E0A05F13C0905F14E085FFA84FB50
:100310000BF10103DBB2023B052B04D8DFE803F04D
:10032000322B251F190E05F1440231463846FFF7DE
:1003300093FBBBF1060F07D00134E7E705F1540248
:1003400031463846FFF788FB9DF90F0007B0BDE83E
:10035000F08F524631463846FFF7FAFBECE74A4643
:1003600031463846FFF72AFEE6E742463146384630
:10037000FFF7EAFDE0E705F12C0231463846FFF7CA
:10038000ABFDD9E731463846FFF71EFC85ED100A74
:10039000D2E700BF2DE9F04F9FEDDC7ADFEDDC7A8C
:1003A000DFEDDC6A2DED0A8B20EE877A70EEA77AFE
:1003B000D0ED018A89B0B0EE40AA87EE270A1D462B
:1003C00004468A469346DDE91C76B0EE608AB0EEBC
:1003D000419AF0EE619A68EEA68A1BF007FD9FED48
:1003E000CE6ADFEDCE7A9FEDCE7A9FEDCE5ADFED6D
:1003F000CE5A29EE066A38EE077AC6EE276A26EE4E
:10040000800AC0EE077A67EE857AF4EEE57AF1EEBF
:1004100010FADCBF0DF1200815EE903ACDED067A0A
:10042000D4BF48F8083D0DF11808404601F0D8FB4C
:100430006388B3F5967F00F04281B3F5E16F00F079
:100440003B81642B00F09F8094ED0B0ADDED067A72
:1004500020EE270A30EE0A0A86ED000A94F93D30B4
:1004600007EE903AF8EEE77AB4EEE78AF1EE10FA8A
:1004700036D894F93C3007EE903AF8EEE77AB4EECD
:10048000E78AF1EE10FAC0F2818094F83F3007EE6F
:10049000903AF8EEE77AB4EEE79AF1EE10FA75D8F2
:1004A00094F83E3007EE903AF8EEE77AB4EEE79A29
:1004B000F1EE10FA6ADBBBF1000F11D095B9F5EE41
:1004C000409AF1EE10FA258D40F08981002D00F060
:1004D0003D81638DED1A04F10803258501935DE0EC
:1004E000002D58D0D4ED027AF5EE407AF1EE10FAF4
:1004F00018BFCDED027AD4ED047A04BF33680293BD
:10050000F5EE407AF1EE10FA08BFDDED027A236ACB
:10051000069308BF77EEE87A0822CDED047AD4ED91
:10052000037AF5EE407AF1EE10FA18BFCDED037ABA
:10053000D4ED057A04BF33680393F5EE407AF1EE0B
:1005400010FA08BFDDED037A636A14BFCDED057ABA
:1005500077EEE88A0DEB0201384608BFCDED058A3B
:10056000079324F026FA082204A9B81824F021FAE7
:10057000414607F11000082224F01BFA09B0BDEC37
:100580000A8BBDE8F08F94ED0E0A5FE7BBF1000F18
:10059000A6D0002DA6D104F108030193019DDFED43
:1005A000639A9FED63BADFED63AA9FED63AA1C9780
:1005B00004F11C0904F110034F460193F7EE00BA51
:1005C000A94699ED007AD9ED027AB4EEC07AF1EE3F
:1005D00010FA40F28880F4EEC07AF1EE10FAACBF67
:1005E0000125002537EE409A30EE678AB5EEC09AB5
:1005F000F1EE10FAB5EEC08A48BFB0EE699AF1EE9E
:1006000010FAF5EE407A48BFB0EE698AF1EE10FAC2
:100610006DD1B0EE68CAF0EE480AB0EE490A1BF0A0
:100620005DFB30EE000AC0EE0C7AF4EE6B7AF1EE70
:1006300010FAC8BFF0EE6B7ABAF1000F42D0BBF1EE
:10064000000F3FD0D9ED066AB0EE087AF4EE476AA3
:10065000F1EE10FA72D17BEEE77AB6EE087A67EE29
:10066000A77A67EE877A67EEAA7A77EE8A7AF0EE53
:10067000686A48EEA76A99ED027AD9ED007A77EEBA
:10068000C77AF4EEE76AF1EE10FA39DCB5EE407A9B
:10069000F1EE10FA34D0002D53D13978FF2900F053
:1006A000C2800131C9B2397094F84C00884240F2DE
:1006B000BA80F0EE007A0AE094ED0C0AC6E694EDFA
:1006C0000D0AC3E694F84C103970F0EE697A019B7C
:1006D000C9ED067A09F104094B4507F1010704D079
:1006E00096ED000A6DE701257CE71C9FFAE637EEE0
:1006F000670AF0EE680A1BF0D3FAB0EE40CA8AE748
:1007000094F84C103970F7EE007AE0E7C3F58C41AD
:10071000B81E7343C178C63D8195C3400000C842EE
:100720003393884333B358430AD7233C0000000077
:100730009A99993ECDCC4C3ECDCCCC3DF0EE4B7A47
:1007400095E700213970F0EE007AC0E704F1080364
:1007500001931D464FF00109D5ED007AF5EE407A80
:10076000D5ED027AF1EE10FA08BF85ED000AF5EE3C
:10077000407A08BF96ED000AF1EE10FA4B46294682
:100780004FF0000220460CD1D5ED007A77EEE87AE2
:10079000F4EEC07AF1EE10FAC4BF85ED020A96EDD0
:1007A000000AFFF7EBFCD5ED027AF5EE407AF1EEA8
:1007B00010FA0AD1B9F1020F05F1040596ED000A0D
:1007C0003FF4ECAE4FF00209C6E74B46012205F1BB
:1007D000080196ED000A2046FFF7D0FCEAE7FDEE9F
:1007E000E97A04F1080217EE903A019204EB430211
:1007F00004EB8303B2F84C2093ED140AAB1A9BB2BE
:1008000007EE903AB8EE678A1BF0F0FA88EE000A1D
:100810001BF09EFAFCEEC07A96ED000A17EE903AB5
:10082000ED1A2585BAE6F0EE087A50E72DE9F04397
:1008300085B004AC072504F8095D06461746007824
:1008400022460D4601F022F99DF807200390D2B10F
:10085000012406F1540906F13E08631E062B0DD84B
:10086000DFE803F03F3553492B2204003A4603AB3F
:1008700029464846FFF70AF99DF807200134E4B2FB
:10088000A242EAD2039804A9022221F8060D02A886
:1008900024F08FF89DF808209DF8093003982A70FD
:1008A0006B7005B0BDE8F0833A4603AB294640467D
:1008B000FFF764F99DF80720E0E73A4603AB2946C5
:1008C00006F13C00FFF7E2FA9DF80720D6E703AAFD
:1008D0003946284696ED100AFFF790F99DF8072053
:1008E000CCE73A4603AB294606F14400FFF7CEF8C1
:1008F0009DF80720C2E73A4603AB294606F14E00B1
:10090000FFF782FA9DF80720B8E73A4603AB29467D
:1009100006F12C00FFF736FA9DF80720AEE700BF7E
:100920002DE9F04385B004AC0B2504F8095D0646BB
:100930001746007822460D4601F0A8F89DF80720DA
:100940000390EAB1012406F1200906F11C08631E98
:100950000A2B10D8DFE803F09F908274675A4D404D
:10096000332506003A4603AB294696F84C00FFF7BC
:100970007DF99DF807200134E4B2A242E7D2039842
:1009800004A9022221F8060D02A824F012F89DF80D
:1009900008209DF8093003982A706B7005B0BDE8F7
:1009A000F08303AA3946284696ED010AFFF726F997
:1009B00001349DF80720E4B2A242C8D2DFE73A46EC
:1009C00003AB2946708DFFF7A1F801349DF807208D
:1009D000E4B2A242BBD2D2E73A4603AB2946308DFD
:1009E000FFF794F801349DF80720E4B2A242AED29A
:1009F000C5E73A4603AB29464846FFF747F80134B6
:100A00009DF80720E4B2A242A1D2B8E73A4603AB70
:100A100029464046FFF7B2F801349DF80720E4B2BA
:100A2000A24294D2ABE73A4603AB29467088FFF75F
:100A30006DF801349DF80720E4B2A24287D29EE708
:100A40003A4603AB2946708BFFF760F801349DF8F6
:100A50000720E4B2A242BFF47AAF90E73A4603AB74
:100A60002946308BFFF752F801349DF80720E4B295
:100A7000A242BFF46CAF82E73A4603AB294606F1C7
:100A80001000FFF703F801349DF80720E4B2A242FA
:100A9000BFF45DAF73E73A4603AB294606F10800A1
:100AA000FEF7F4FF01349DF80720E4B2A242BFF440
:100AB0004EAF64E700230022022110B44FF6FF740A
:100AC000448002834283C0E908228262836003611A
:100AD000C360436143600177417780F84C105DF853
:100AE000044B70474FF6FF7399424FD043888B42B7
:100AF0004CD070B53B4B0546A3FB0123B1F5967F67
:100B000082B00C4669804FEA531367D03FD9B1F5E4
:100B1000E16F3ED047F23052914250D1324A0192B9
:100B200001AE6B85304601F05BF89DED010A1BF0CC
:100B3000ABF8DFED2E7A80EE270A85ED010A47F249
:100B40003052B2FBF4F304FB132292B29BB232B1E7
:100B500004F0010101EB5404A242A8BF013307EEE7
:100B6000903AF8EE677A3046CDED017A01F04CF814
:100B70009DED010A30EE000A1BF08EF8FCEEC07A03
:100B800017EE903A85F84C3002B070BD704764297A
:100B900015D1174A019201AE6B85304601F020F85D
:100BA0009DED010A1BF070F8DFED107A80EE270A48
:100BB00085ED010A002CC2D1DFED0E7AD3E7094A98
:100BC00009490191A2FB04025209642000FB124270
:100BD00092B2312A84BF01339BB2DCE7064A01920C
:100BE0009EE700BF1F85EB51304C463F502C633EC3
:100BF0009A99193F00FF7F470AD7233F2DE9F04715
:100C000086B004AB05AE05460078009301960DF161
:100C10000F030F4600F00CFF9DF90F301BBB0124A2
:100C200005F1200A05F11C0905F11008A31E092B86
:100C300006D8DFE803F04D47413B352F29231C1030
:100C400005F1080231463846FEF706FF0B2C45D069
:100C50000134E4B2EAE731463846FEF7F3FF9DF986
:100C60000F3085F84C00184606B0BDE8F0873146D5
:100C70003846FEF7A9FF85ED010AE9E73146384617
:100C8000FEF72CFF6885E3E731463846FEF726FF7E
:100C90002885DDE7524631463846FEF7DDFED7E7C8
:100CA0004A4631463846FEF753FFD1E731463846CB
:100CB000FEF714FF6880CBE731463846FEF70EFF9B
:100CC0006883C5E731463846FEF708FF2883BFE74B
:100CD000424631463846FEF7BFFEB9E79DF90F3070
:100CE000C1E700BF10B50323044600F8043B01F040
:100CF0000BF8204600F094FF204610BD70B586B07A
:100D000004AB05AC05460078009301940DF10F0388
:100D10000E4600F08DFE9DF90F0038B9304605F102
:100D200020022146FEF758FE9DF90F0006B070BD67
:100D30002DE9F041F2EE047A90ED047A2DED048B6A
:100D4000B4EE670AF1EE10FAB0EE408AB5EE407AE2
:100D500098BFB0EE678AF1EE10FA88B00446B0EEA4
:100D6000609AF0EE418A0F4616461D4633D00DF1CB
:100D7000040840468DED018A00F032FFDDED017A76
:100D80008DED039A201DCDED048ACDED027A05ABE1
:100D9000103403A990ED037AD0ED006A77EEC77A9C
:100DA000043067EEA67AA04277EE877AE3EC017A08
:100DB00002D0F1EC017AEDE705A90C2223F0F9FD50
:100DC0000599069A079B396032602B6008B0BDEC2C
:100DD000048BBDE8F08118EE103A0DF1200848F8B8
:100DE0001C3D404600F0FCFE019B84ED059AC4EDDD
:100DF000068A2361BDE700BF70B588B003AB04ADC0
:100E000004460078009301950DF10B030E4600F0A7
:100E10000FFE9DF90B0060B92946304605AAFEF782
:100E2000DBFD05A904F110000C2223F0C2FD9DF9A1
:100E30000B0008B070BD00BF07EE901A9FED147A4A
:100E4000F8EE677A00B5C7EE276A85B000F1200397
:100E500000F12C0101AAF6EE007A66EEA76AB7EE61
:100E6000007AB3EC016AC6EE267AF4EE477AF1EE28
:100E700010FAC8BFF0EE477A8B42E2EC017AF0D16B
:100E800001A9043000F0F0FE05B05DF804FB00BFDE
:100E90000000C84210B5044600F8041B00F044FFEF
:100EA000204600F0D7FE204610BD00BF70B586B0CA
:100EB00004AB05AC05460078009301940DF10F03D7
:100EC0000E4600F0B5FD9DF90F0038B9304605F12A
:100ED00010022146FFF7ECF89DF90F0006B070BD37
:100EE00008B5B5EEC01AF1EE10FA2DED048B0346ED
:100EF000B0EE609A37D9DFED1D7AB4EE671AF0EEE6
:100F0000418AF1EE10FAC8BFF0EE678AD3ED027A9B
:100F1000F5EE407AF1EE10FA08BFF0EE407A30EECE
:100F2000678A93ED010A28EE008A03F1100038EE7B
:100F3000278AB0EE680A83ED028A00F05BFEF0EECD
:100F4000490A30EE281AB0EE480A00F0AFFDBDECB9
:100F5000048BDFED067AB4EE670AF1EE10FAC8BF33
:100F6000B0EE670A08BDDFED028ACFE70000C84295
:100F700017B7D138F0B585B004AE012406F8094D95
:100F800005461746007832460E4600F07FFD9DF874
:100F900007300390A3B1103503E00134E4B2A3425B
:100FA0000DD3012CF9D103AB3A4631462846FEF762
:100FB000E3FF01349DF80730E4B2A342F1D2039875
:100FC00004A9022221F8060D02A823F0F2FC9DF8E4
:100FD00008209DF8093003983270737005B0F0BD99
:100FE000F0B585B004AD012405F8094D0646174655
:100FF00000782A460D4600F049FD9DF80730039021
:1010000023B913E00134E4B2A3420ED3012CF9D189
:1010100003AA3946284696ED020AFEF7EFFD013491
:101020009DF80730E4B2A342F0D2039804A902224B
:1010300021F8060D02A823F0BCFC9DF808209DF8BD
:10104000093003982A706B7005B0F0BD70B586B09A
:1010500004AB05AD04460078009301950DF10F0334
:101060000E4600F0E5FC9DF90F0038B930462946E0
:10107000FEF7AAFD9DF90F0084ED020A06B070BDCF
:1010800007EE901ADFED1E6A9FED1E0AB8EE677A32
:1010900010B5C6EE877A04462DED028BB6EE007AC7
:1010A00067EE877A82B0F7EE000A80EE270A1AF020
:1010B00015FEF0EE408A9FED140A28EE800A1AF021
:1010C0004BFE20EE008A02A868EE087A77EE887A56
:1010D00060ED017A00F098FDF7EE007AF4EE678A91
:1010E0009DED010AF1EE10FA1CBF70EE487A77EE22
:1010F000A77AC4ED017A02B0BDEC028B10BD00BF2F
:101100000000C84299D4503CDB0FC93F30B41349AA
:101110000163022500244FF4FA7105700471E12582
:10112000192441804FF08141C58004720C4D01614A
:101130004FF4C8740B49456100224FF07C5504837D
:10114000C1614FF47A74084905628484C260826286
:10115000C2624163816330BC704700BFEC5185427D
:1011600000002041000070410000C8412DE9F04717
:1011700091ED007AD1ED026A91ED035AD1ED017A39
:101180002DED068B37EE409A37EE667A0D46C9EEA6
:10119000075AC188109E9A46438804469146DDE965
:1011A0000E8706EE101A017AB8EE466A06EE901A1D
:1011B00025EE866AF8EE666A09EE903A0379B0EE9B
:1011C00060AA76EE260A06EE903A37EEC07A77EEFF
:1011D000C57AB8EE660AC7EE278A1AF061FDF8EE06
:1011E000699AF0EE400AB0EE690A1AF077FD237AA8
:1011F000D4ED037A00EE903A237929EE279AF0EEA7
:10120000409AF8EE600A00EE103A79EE200AB8EE45
:10121000400A1AF045FDF7EE007AB4EEE7AAF1EEC7
:1012200010FAB0EE408A5FD4C4ED0D9A84ED0E0A38
:10123000C9ED009A2B69228BC9F804308AED008A27
:101240002B69CAF80430D4ED0C7A00EE102AF4EEC3
:10125000C87AF1EE10FAB8EE400A40DBD4ED040A89
:1012600068EE200A70EE800A1AF01AFD88ED000A76
:101270002A69A38CC8F80420D4ED0A7AD4ED0B0AAD
:1012800028EE278A07EE903A78EE200AB2EE040A9A
:10129000B8EE678A1AF054FEF0EE400A9FED240A79
:1012A0001AF0FEFCF0EE400AB0EE480A1AF016FD05
:1012B000DFED207A87ED000A28EEA77ABDEC068BD9
:1012C000B4EEE77AF1EE10FA2B697B60D8BFF0EE4E
:1012D000477AC6ED007A6B697360BDE8F087D4ED9C
:1012E000050A68EE200ABFE794ED0D7AB4EEE97ABC
:1012F000F1EE10FA2AEE0AAA07D577EECA7A69EE5D
:101300008A9A67EE877A77EEA99AD4ED0E7AF4EE90
:10131000C87AF1EE10FA8BD5F7EE000A70EECA0A21
:1013200028EE0A8A60EEA70A30EE888A80E700BFBE
:10133000CDCCCC3D0000C8422DE9F04184B004ACD6
:10134000082504F8095D06461746007822460D4632
:1013500000F09CFB9DF807200390CAB1012406F120
:101360001008631E072B0ED8DFE803F0483F5A51E0
:10137000362D230403AA3946284696ED080AFEF7BF
:101380003DFC9DF807200134E4B2A242E9D2039863
:1013900004A9022221F8060D02A823F00AFB9DF8F9
:1013A00008209DF8093003982A706B7004B0BDE8DE
:1013B000F08103AA3946284696ED070AFEF71EFC7F
:1013C0009DF80720DFE73A4603AB2946308BFEF74E
:1013D0009DFB9DF80720D6E73A4603AB29464046D9
:1013E000FEF7CAFD9DF80720CDE73A4603AB294634
:1013F0007088FEF78BFB9DF80720C4E73A4603ABE5
:1014000029463079FEF732FC9DF80720BBE73A46C3
:1014100003AB2946307AFEF729FC9DF80720B2E796
:101420003A4603AB2946F088FEF770FB9DF807208B
:10143000A9E700BFF0B585B004AC022504F8095D4A
:1014400006461746007822460D4600F01FFB9DF821
:101450000730039003B301240EE0022C08D103AA45
:101460003946284696ED0E0AFEF7C8FB9DF8073070
:101470000134E4B2A3420ED3012CEED103AA3946C3
:10148000284696ED0D0AFEF7B9FB01349DF80730AA
:10149000E4B2A342F0D2039804A9022221F8060D77
:1014A00002A823F086FA9DF808209DF809300398D9
:1014B0002A706B7005B0F0BD70B586B004AB05AD99
:1014C00004460078009301950DF10F030E4600F0DD
:1014D000AFFA9DF90F0068B929463046FEF774FB54
:1014E0003046294684ED0D0AFEF76EFB9DF90F008C
:1014F00084ED0E0A06B070BD4FF6FF7399424ED0D0
:10150000F0B52DED028BC388057AC669076A2B44B6
:1015100007EE903AB1F5967F83B0B8EEE78A42D0F5
:10152000B1F5E16F3CD064293AD0204B00930446DA
:10153000684600F055FB07EE905A9DED000AF8EE64
:10154000678A1AF0A1FB78EE688A02AD88EE800AFD
:1015500045F8046D284684ED030A00F041FB684617
:10156000009700F03DFBDDED017A9DED007A0196DC
:1015700077EEC77A284687EEA87A84ED0A7A00F0DB
:101580002FFB94ED0A7ADDED017A28EE078A37EE1B
:10159000C88A84ED0B8A03B0BDEC028BF0BD7047A6
:1015A000034B0093C3E7034B0093C0E7304C463F27
:1015B0009A99193F0AD7233F2DE9F04387B004AB2E
:1015C00005AE05460078009301960DF10F030F4616
:1015D00000F02EFA9DF90F0010BB044605F110082B
:1015E0005FFA84F909F10103DBB2023B062B05D84F
:1015F000DFE803F038322C2620190E003146384639
:10160000FEF720FBB9F1070F287131D00134E7E76D
:1016100038463146FEF7D8FA9DF90F0085ED080AE5
:1016200007B0BDE8F08331463846FEF7CDFA85EDC8
:10163000070AEBE731463846FEF750FA2883E5E71C
:10164000424631463846FEF733FDDFE7314638463D
:10165000FEF7F8FA2872D9E731463846FEF73EFA27
:10166000E880D3E731463846FEF738FA6880CDE7A0
:101670009DF90F00D4E700BF30B40C49C1610525C6
:10168000012400220021057080F828400025002454
:10169000C0E90845C0E9024582614261026180F803
:1016A000291080F82A1030BC704700BFC9B28B5394
:1016B0002DE9F04DD0E902678046D0E90801924655
:1016C000921B9B4663EB0703904271EB0303089D5B
:1016D00003DBB2457BEB070365DA00230022C8F881
:1016E000102088F82A301C46C8E902AB98F8296017
:1016F000D6B9D8E90223BAEB02006BEB030100F084
:1017000041FCD8ED057A98ED067A06EE900A76EE61
:10171000A77AF4EEC77AF1EE10FAA8BF0126C8ED59
:10172000057AA8BF88F82960D4B9D8E90234BAEBA1
:1017300003006BEB040100F025FCD8ED047A98ED72
:10174000077A06EE900A76EEA77AF4EEC77AF1EE03
:1017500010FAA8BF0123C8ED047AA8BF88F82A3080
:10176000BAF1010F7BF1000323DBC8E902AB2E7055
:1017700098F82A30099A137033B9D8ED077AF5EE44
:10178000407AF1EE10FA05D10A9A4FF07E531360B9
:10179000BDE8F08DD8ED046A0A9B86EEA77A83ED4A
:1017A000007ABDE8F08D56EA070398F82A409DD1EB
:1017B0009AE701220023C8E90223D8E7F0B585B0F3
:1017C00004AC022504F8095D064617460078224657
:1017D0000D4600F05BF99DF80730039003B3012438
:1017E0000EE0022C08D103AB3A46294696F92800B0
:1017F000FEF78CFB9DF807300134E4B2A3420ED310
:10180000012CEED103AA3946284696ED060AFEF7CA
:10181000F5F901349DF80730E4B2A342F0D2039801
:1018200004A9022221F8060D02A823F0C2F89DF8AF
:1018300008209DF8093003982A706B7005B0F0BD40
:10184000F0B587B006AC052504F8095D06461746D5
:10185000007822460D4600F019F99DF80F200590FA
:10186000B2B10124631E042B0DD8DFE803F03F2141
:10187000352B03003A4605AB294696F82A00FEF7B9
:101880005BFA9DF80F200134E4B2A242EAD2059837
:1018900006A9022221F8060D04A823F08AF89DF873
:1018A00010209DF8113005982A706B7007B0F0BDBC
:1018B00005AA3946284696ED050AFEF79FF99DF8D8
:1018C0000F20E0E73A4605AB294696F82900FEF7D7
:1018D00033FA9DF80F20D6E705AA3946284696ED3B
:1018E000040AFEF78BF99DF80F20CCE705ABD6E98B
:1018F00002012A4600933B46FEF7F2F99DF80F20BD
:10190000C1E700BFF0B587B004AB05AE054600786F
:10191000009301960DF10F030F4600F089F89DF931
:101920000F30C3B90124A31E31463846032B03D818
:10193000DFE803F01E19140BFEF7B6F9052CC5E914
:1019400002011AD00134E4B2EDE7FEF7EDF99DF99A
:101950000F3085F82A00184607B0F0BDFEF7E4F90D
:1019600085F82900EEE7FEF72FF985ED040AE9E78F
:10197000FEF72AF985ED050AE4E79DF90F30EAE75D
:101980004FF6FF73994218D090F92820134B01FBB2
:1019900002F202EB5202A2FB0323B1F5967FC0E9EB
:1019A000082307D0B1F5E16F14D0642902D00C4BA5
:1019B000C36170470B4BC361704710B40021002412
:1019C00000220023046180F82A10C0E902235DF898
:1019D000044B7047044BC361704700BF809698006A
:1019E000C9B28B53C9B28B5276845F5170B586B041
:1019F00004AB05AD04460078009301950DF10F038B
:101A00000E4600F015F89DF90F306BB929463046A7
:101A1000FEF7DAF8294684ED060A3046FEF70CFB9D
:101A20009DF90F3084F82800184606B070BD00BF3D
:101A30002DE9F04182B0DDE908860024032A3460F4
:101A40001C70C8F800401CD91C46042333600A7877
:101A50004B788DF804200D460746022201A90DF1AE
:101A600006008DF8053022F0A4FFBDF80630C8F856
:101A70000030AB78BB421CBF9C23237002B0BDE892
:101A8000F08198221A7002B0BDE8F08110B4147889
:101A90000CB19C4204D2002010705DF8044B7047DA
:101AA00088705DF8044B0420704700BF00B52DED31
:101AB000028BB5EEC01AF1EE10FA83B0F0EE408A58
:101AC000B0EE608A52D49FED2B7AB4EEC71AF1EED5
